:100000000C942A000C9447000C9447000C94470071
:100010000C9447000C9447000C9447000C94470044
:100020000C9447000C9447000C9447000C94470034
:100030000C9447000C9447000C9447000C94470024
:100040000C9447000C9447000C9447000C94470014
:100050000C94470011241FBECFE5D8E0DEBFCDBF12
:1000600010E0A0E6B0E0ECE2F7E202C005900D92ED
:10007000A238B107D9F710E0A2E8B0E001C01D92A4
:10008000A638B107E1F70E94510E0C9494130C941A
:100090000000EF92FF920F931F937B018C0120E0F1
:1000A00030E040E05FE40E94490388238CF0C801FF
:1000B000B70120E030E040E05FE40E94C1010E940F
:1000C000A9039B01AC01205030404040504806C07D
:1000D000C801B7010E94A9039B01AC01B901CA0183
:1000E0001F910F91FF90EF900895A0E0B0E0EBE733
:1000F000F0E00C94B70FDC012B01FA019C919230D7
:1001000008F439C1EB018881823008F433C194309E
:1001100069F4843009F02FC111969C91119789815F
:10012000981709F428C1A3E6B0E025C1843009F48A
:1001300021C18230A9F4923009F01DC19A01AD01AC
:1001400088E0EA010990AE01E90109929E0181501F
:10015000C1F7E201898111969C918923818308C1AD
:10016000923009F407C112962D903C901397EB0141
:100170008A819B811496AD90BD90CD90DC901797AD
:10018000EC80FD800E811F819101281B390BB90184
:1001900037FF04C066277727621B730B6032710537
:1001A0000CF061C0121613066CF537014801062EDB
:1001B00004C096948794779467940A94D2F721E0C8
:1001C00030E040E050E004C0220F331F441F551FB1
:1001D0006A95D2F721503040404050402E213F21B7
:1001E00040235123211531054105510521F021E01E
:1001F00030E040E050E079018A01E628F72808293C
:1002000019293CC0232BD1F1260E371E350146019A
:10021000062E04C096948794779467940A94D2F734
:1002200021E030E040E050E004C0220F331F441FC3
:10023000551F6A95D2F721503040404050402A2146
:100240003B214C215D21211531054105510521F04E
:1002500021E030E040E050E059016A01A628B728CB
:10026000C828D9280BC0821593052CF01C01AA249C
:10027000BB24650103C0EE24FF24870111969C91E5
:10028000D20111968C91981709F445C0992339F041
:10029000A80197012A193B094C095D0906C0A6016E
:1002A00095012E193F09400B510B57FD08C01182D3
:1002B0003382228224833583468357831DC081E0A5
:1002C00081833382228288279927DC01821B930B4A
:1002D000A40BB50B84839583A683B7830DC0220F2F
:1002E000331F441F551F24833583468357838281E0
:1002F000938101979383828324813581468157813D
:10030000DA01C9010197A109B1098F5F9F4FAF4F72
:10031000BF4328F30BC0918333822282EA0CFB1C7B
:100320000C1D1D1DE482F5820683178383E0808304
:10033000248135814681578157FF1AC0C901AA27F8
:1003400097FDA095BA2F81709070A070B0705695EF
:10035000479537952795822B932BA42BB52B848318
:100360009583A683B7838281938101969383828349
:10037000DF0101C0D201CD01CDB7DEB7E2E10C94BF
:10038000D30FA0E2B0E0E7ECF1E00C94C30F698377
:100390007A838B839C832D833E834F835887E9E048
:1003A000EE2EF12CEC0EFD1ECE010196B7010E943F
:1003B000D2048E010F5E1F4FCE010596B8010E9438
:1003C000D2048A8991E089278A8BC701B801AE01DE
:1003D000475E5F4F0E9475000E94FD03A096E6E015
:1003E0000C94DF0FA0E2B0E0E8EFF1E00C94C30F53
:1003F00069837A838B839C832D833E834F835887C5
:10040000F9E0EF2EF12CEC0EFD1ECE010196B701A6
:100410000E94D2048E010F5E1F4FCE010596B801D7
:100420000E94D204C701B801AE01475E5F4F0E942F
:1004300075000E94FD03A096E6E00C94DF0FA0E299
:10044000B0E0E5E2F2E00C94B70F69837A838B8326
:100450009C832D833E834F835887CE010196BE0136
:10046000675F7F4F0E94D204CE010596BE016F5E8A
:100470007F4F0E94D2049985923088F0898982301A
:10048000C8F0943019F4823051F404C0843029F457
:10049000923081F483E690E0C6C0923049F420E0C7
:1004A0009A858A89981321E02A87CE010996BBC0D4
:1004B000823049F420E09A858A89981321E02A8BBA
:1004C000CE014196B0C02D843E844F8458886D88FB
:1004D0007E888F88988CEE24FF248701AA24BB2471
:1004E000650140E050E060E070E0E0E0F0E0C10174
:1004F00081709070892BE9F0E60CF71C081D191D1E
:100500009A01AB012A0D3B1D4C1D5D1D80E090E062
:10051000A0E0B0E0E614F7040805190520F481E036
:1005200090E0A0E0B0E0BA01A901480F591F6A1F8E
:100530007B1FAA0CBB1CCC1CDD1C97FE08C081E0F5
:1005400090E0A0E0B0E0A82AB92ACA2ADB2A3196B6
:10055000E032F10549F0660C771C881C991C569412
:10056000479437942794C3CFFA85EA892B893C892D
:100570008B859C85280F391F2E5F3F4F17C0CA01FE
:1005800081709070892B61F016950795F794E79428
:1005900080E090E0A0E0B0E8E82AF92A0A2B1B2BC3
:1005A00076956795579547952F5F3F4F77FDE7CF36
:1005B0000CC0440F551F661F771F17FD4160EE0CDE
:1005C000FF1C001F111F21503040403090E05907A0
:1005D00090E0690790E4790760F32B8F3C8FDB0193
:1005E000CA018F779070A070B07080349105A1051A
:1005F000B10561F447FD0AC0E114F10401051105DC
:1006000029F0405C5F4F6F4F7F4F40781A8EFE1786
:1006100011F081E08A8F4D8F5E8F6F8F78A383E01A
:10062000898FCE0149960E94FD03A096E2E10C94C9
:10063000D30FA8E1B0E0EFE1F3E00C94C30F6983BE
:100640007A838B839C832D833E834F83588789E0F5
:10065000E82EF12CEC0EFD1ECE010196B7010E9492
:10066000D2048E010F5E1F4FCE010596B8010E9485
:10067000D2048985823040F08989823028F0C70110
:10068000B8010E944A0501C08FEF6896E6E00C941D
:10069000DF0FA8E1B0E0EFE4F3E00C94C30F69834F
:1006A0007A838B839C832D833E834F83588789E095
:1006B000E82EF12CEC0EFD1ECE010196B7010E9432
:1006C000D2048E010F5E1F4FCE010596B8010E9425
:1006D000D2048985823040F08989823028F0C701B0
:1006E000B8010E944A0501C08FEF6896E6E00C94BD
:1006F000DF0FA8E1B0E0EFE7F3E00C94C30F6983EC
:100700007A838B839C832D833E834F83588789E034
:10071000E82EF12CEC0EFD1ECE010196B7010E94D1
:10072000D2048E010F5E1F4FCE010596B8010E94C4
:10073000D2048985823040F08989823028F0C7014F
:10074000B8010E944A0501C081E06896E6E00C9479
:10075000DF0FACE0B0E0EFEAF3E00C94C70F698381
:100760007A838B839C83CE010196BE016B5F7F4FA2
:100770000E94D2048D81823061F1823050F1843048
:1007800021F48E81882351F12EC02F81388537FDC9
:1007900020C06E812F3131051CF06623F9F023C093
:1007A0008EE190E0821B930B29853A854B855C8511
:1007B00004C056954795379527958A95D2F76623B5
:1007C000B1F050954095309521953F4F4F4F5F4F79
:1007D0000EC020E030E040E050E009C02FEF3FEFD6
:1007E0004FEF5FE704C020E030E040E050E8B9019F
:1007F000CA012C96E2E00C94E30FDF92EF92FF9295
:100800000F931F93FC01E480F58006811781D1804E
:100810008081823048F480E090E0A0E1B0E0E82AF6
:10082000F92A0A2B1B2BA5C0843009F49FC0823003
:1008300021F4EE24FF24870105C0E114F104010531
:10084000110519F4E0E0F0E096C0628173819FEF3A
:10085000623879070CF05BC022E83FEF261B370BAC
:100860002A3131052CF020E030E040E050E02AC091
:10087000B801A701022E04C0769567955795479554
:100880000A94D2F781E090E0A0E0B0E004C0880FC5
:10089000991FAA1FBB1F2A95D2F70197A109B10979
:1008A0008E219F21A023B1230097A105B10521F03E
:1008B00081E090E0A0E0B0E09A01AB01282B392B59
:1008C0004A2B5B2BDA01C9018F779070A070B07052
:1008D00080349105A105B10539F427FF09C0205CDA
:1008E0003F4F4F4F5F4F04C0215C3F4F4F4F5F4F13
:1008F000E0E0F0E02030A0E03A07A0E04A07A0E402
:100900005A0710F0E1E0F0E079018A0127C0603871
:10091000710564F5FB01E158FF4FD801C7018F77DE
:100920009070A070B07080349105A105B10539F4C4
:10093000E7FE0DC080E490E0A0E0B0E004C08FE3EB
:1009400090E0A0E0B0E0E80EF91E0A1F1B1F17FFA1
:1009500005C016950795F794E794319687E01695AC
:100960000795F794E7948A95D1F705C0EE24FF2404
:100970008701EFEFF0E06E2F679566276795902F60
:100980009F77D794DD24D7948E2F8695492F462BB9
:10099000582F5D29B701CA011F910F91FF90EF9069
:1009A000DF900895FC01DB01408151812281622F9B
:1009B0006F7770E0221F2227221F9381892F880FD3
:1009C000822B282F30E0991F9927991F11969C930D
:1009D000119721153105A9F54115510561057105DD
:1009E00011F482E037C082E89FEF13969C938E93B8
:1009F00012979A01AB0167E0220F331F441F551F66
:100A00006A95D1F783E08C930DC0220F331F441FEA
:100A1000551F12968D919C911397019713969C9355
:100A20008E931297203080E0380780E0480780E4FA
:100A3000580758F314962D933D934D935C93179755
:100A400008952F3F310579F4411551056105710570
:100A500019F484E08C93089564FF03C081E08C93C3
:100A600012C01C9210C02F57304013963C932E9307
:100A7000129783E08C9387E0440F551F661F771F02
:100A80008A95D1F7706414964D935D936D937C9322
:100A9000179708951F93DC01FB019C91923008F495
:100AA00047C08081823008F443C0943051F41196DD
:100AB0001C91843099F58181682F70E0611B710968
:100AC0003FC0843021F0923031F48230B9F181811D
:100AD000882389F12DC011961C9111978230F1F075
:100AE00081811817D9F412962D913C911397828128
:100AF00093818217930794F028173907BCF0149656
:100B00008D919D910D90BC91A02D248135814681C0
:100B10005781281739074A075B0718F4112341F05A
:100B20000AC082179307A407B50740F4112319F0F0
:100B300061E070E005C06FEF7FEF02C060E070E041
:100B4000CB011F910895DF93CF93CDB7DEB72F97D9
:100B50000FB6F894DEBF0FBECDBF8F8782E060E096
:100B600040E00E94EB0982E061E040E00E94EB0976
:100B700080E06F850E94FD0A82E062E041E00E9411
:100B8000EB0980E090E0A0E0B0E48B879C87AD8724
:100B9000BE876B857C858D859E8520E030E44CE1A9
:100BA00055E40E941F02DC01CB018F839887A9873F
:100BB000BA876F81788589859A8520E030E040E8A2
:100BC0005FE30E94790388232CF481E090E09E8308
:100BD0008D833FC06F81788589859A8520E03FEFBE
:100BE0004FE757E40E94190318164CF56B857C8576
:100BF0008D859E8520E030E040E251E40E941F0296
:100C0000DC01CB01BC01CD010E944900DC01CB011C
:100C10009E838D830FC08AEF90E09C838B838B81B2
:100C20009C810197F1F79C838B838D819E81019735
:100C30009E838D838D819E81009769F714C06F819B
:100C4000788589859A850E944900DC01CB019E83C5
:100C50008D838D819E819A83898389819A81019771
:100C6000F1F79A83898382E062E040E00E94EB0919
:100C70002F960FB6F894DEBF0FBECDBFCF91DF9198
:100C80000895DF93CF93CDB7DEB72F970FB6F894C3
:100C9000DEBF0FBECDBF8F8782E060E041E00E94E3
:100CA000EB0982E061E040E00E94EB0980E06F85A3
:100CB0000E94FD0A82E062E041E00E94EB0980E0D0
:100CC00090E0A0E0B0E48B879C87AD87BE876B8502
:100CD0007C858D859E8520E030E44CE155E40E94C2
:100CE0001F02DC01CB018F839887A987BA876F81A8
:100CF000788589859A8520E030E040E85FE30E94AE
:100D0000790388232CF481E090E09E838D833FC09B
:100D10006F81788589859A8520E03FEF4FE757E41A
:100D20000E94190318164CF56B857C858D859E8570
:100D300020E030E040E251E40E941F02DC01CB01E0
:100D4000BC01CD010E944900DC01CB019E838D8353
:100D50000FC08AEF90E09C838B838B819C810197ED
:100D6000F1F79C838B838D819E8101979E838D8378
:100D70008D819E81009769F714C06F817885898580
:100D80009A850E944900DC01CB019E838D838D8171
:100D90009E819A83898389819A810197F1F79A8349
:100DA000898382E062E040E00E94EB092F960FB653
:100DB000F894DEBF0FBECDBFCF91DF910895DF93D2
:100DC000CF93CDB7DEB72E970FB6F894DEBF0FBE28
:100DD000CDBF80E090E0A0E2B2E48B879C87AD8736
:100DE000BE876B857C858D859E8520E030E44CE157
:100DF00055E40E941F02DC01CB018F839887A987ED
:100E0000BA876F81788589859A8520E030E040E84F
:100E10005FE30E94790388232CF481E090E09E83B5
:100E20008D833FC06F81788589859A8520E03FEF6B
:100E30004FE757E40E94190318164CF56B857C8523
:100E40008D859E8520E030E040E251E40E941F0243
:100E5000DC01CB01BC01CD010E944900DC01CB01CA
:100E60009E838D830FC08AEF90E09C838B838B8160
:100E70009C810197F1F79C838B838D819E810197E3
:100E80009E838D838D819E81009769F714C06F8149
:100E9000788589859A850E944900DC01CB019E8373
:100EA0008D838D819E819A83898389819A8101971F
:100EB000F1F79A83898388E30E94A3058CE00E945E
:100EC000A30581E00E94A3052E960FB6F894DEBF1D
:100ED0000FBECDBFCF91DF910895DF93CF9300D0A8
:100EE0000F92CDB7DEB79B838A8319828A819B815B
:100EF0000097D1F00EC08981282F30E08A819B8134
:100F0000FC01E20FF31F80810E94410689818F5FFF
:100F100089838981282F30E08A819B81FC01E20F3F
:100F2000F31F8081882339F70F900F900F90CF9196
:100F3000DF910895DF93CF93CDB7DEB763970FB6F8
:100F4000F894DEBF0FBECDBF6A877B878C879D87F5
:100F50002DB73EB73B8B2A8B8DB79EB79F878E8769
:100F60008A859B85AC85BD858C839D83AE83BF833D
:100F70001B821A8215C08C819D81AE81BF812AE0BF
:100F800030E040E050E0BC01CD010E94950FDA0155
:100F9000C9018C839D83AE83BF838B818F5F8B83DD
:100FA0008C819D81AE81BF810097A105B10519F7A4
:100FB0008B81882F90E02DB73EB7281B390B0FB6D9
:100FC000F8943EBF0FBE2DBF8DB79EB70196998B8B
:100FD000888B888999890096998B888B288939898B
:100FE00039872887888599852DB73EB728503040A6
:100FF0000FB6F8943EBF0FBE2DBFEDB7FEB73196CA
:101000009183808380E690E0938382838A859B85A9
:10101000AC85BD8584839583A683B7830E94F31036
:101020008DB79EB708960FB6F8949EBF0FBE8DBFC2
:10103000888599850E946D072E853F850FB6F894A7
:101040003EBF0FBE2DBF8A899B890FB6F8949EBF05
:101050000FBE8DBF63960FB6F894DEBF0FBECDBF37
:10106000CF91DF910895DF93CF9300D00F92CDB74A
:10107000DEB78A836B838B81882319F48A81898305
:1010800006C08B81813019F48A81805C89838981D3
:1010900080580E94A3050F900F900F90CF91DF9181
:1010A0000895DF93CF93CDB7DEB727970FB6F894A7
:1010B000DEBF0FBECDBF9C838B836D834E832F839A
:1010C0008D81882F90E0880F991F880F991F880FB6
:1010D000991F8A838A81805C0E94A30519820EC0B1
:1010E0008981282F30E08B819C81FC01E20FF31F66
:1010F00080810E94410689818F5F89838981883040
:1011000078F38E816F810E9433088D810E944106A1
:1011100027960FB6F894DEBF0FBECDBFCF91DF91FB
:101120000895DF93CF93CDB7DEB728970FB6F89425
:10113000DEBF0FBECDBF8A836B834C8319828B8148
:10114000883008F0F4C08C81882309F077C08A8148
:10115000282F30E038872F838F8198858130910543
:1011600059F12F813885223031052CF48F819885F3
:10117000009769F060C02F8138852230310589F1F0
:101180008F8198858330910509F440C054C0AAE34B
:10119000B0E0EAE3F0E08081482F8B81282F30E037
:1011A00081E090E0022E02C0880F991F0A94E2F7B6
:1011B000809584238C93BDC0A7E3B0E0E7E3F0E023
:1011C0008081482F8B81282F30E081E090E0022E33
:1011D00002C0880F991F0A94E2F7809584238C93AC
:1011E000A8C0A4E3B0E0E4E3F0E08081482F8B8165
:1011F000282F30E081E090E0022E02C0880F991F76
:101200000A94E2F7809584238C9393C0A1E3B0E025
:10121000E1E3F0E08081482F8B81282F30E081E0EE
:1012200090E0022E02C0880F991F0A94E2F7809581
:1012300084238C937EC081E089837BC08C81813044
:1012400009F072C08A81282F30E03E832D838D8182
:101250009E818130910549F12D813E8122303105F9
:101260002CF48D819E81009761F05BC02D813E81C1
:101270002230310571F18D819E8183309105E9F134
:1012800050C0AAE3B0E0EAE3F0E08081482F8B8110
:10129000282F30E081E090E0022E02C0880F991FD5
:1012A0000A94E2F7842B8C9344C0A7E3B0E0E7E311
:1012B000F0E08081482F8B81282F30E081E090E0A2
:1012C000022E02C0880F991F0A94E2F7842B8C9398
:1012D00030C0A4E3B0E0E4E3F0E08081482F8B81EC
:1012E000282F30E081E090E0022E02C0880F991F85
:1012F0000A94E2F7842B8C931CC0A1E3B0E0E1E3F5
:10130000F0E08081482F8B81282F30E081E090E051
:10131000022E02C0880F991F0A94E2F7842B8C9347
:1013200008C081E0898305C081E0898302C081E033
:101330008983898128960FB6F894DEBF0FBECDBF92
:10134000CF91DF910895DF93CF9300D000D00F921B
:10135000CDB7DEB78A836B8319828A81282F30E06C
:101360003D832C838C819D8181309105D1F02C812E
:101370003D81223031052CF48C819D81009761F0F4
:101380001FC02C813D812230310581F08C819D81EF
:101390008330910581F014C0EAE3F0E08B81808313
:1013A00011C0E7E3F0E08B8180830CC0E4E3F0E060
:1013B0008B81808307C0E1E3F0E08B81808302C0F2
:1013C00081E0898389810F900F900F900F900F908B
:1013D000CF91DF910895DF93CF93CDB7DEB72897F4
:1013E0000FB6F894DEBF0FBECDBF8A836B834C83EC
:1013F00019828B81883008F0F4C08C81882309F031
:1014000077C08A81282F30E038872F838F81988595
:101410008130910559F12F813885223031052CF426
:101420008F819885009769F060C02F8138852230C0
:10143000310589F18F8198858330910509F440C089
:1014400054C0ABE3B0E0EBE3F0E08081482F8B8148
:10145000282F30E081E090E0022E02C0880F991F13
:101460000A94E2F7809584238C93BDC0A8E3B0E092
:10147000E8E3F0E08081482F8B81282F30E081E085
:1014800090E0022E02C0880F991F0A94E2F780951F
:1014900084238C93A8C0A5E3B0E0E5E3F0E080816D
:1014A000482F8B81282F30E081E090E0022E02C08F
:1014B000880F991F0A94E2F7809584238C9393C038
:1014C000A2E3B0E0E2E3F0E08081482F8B81282F97
:1014D00030E081E090E0022E02C0880F991F0A944C
:1014E000E2F7809584238C937EC081E089837BC062
:1014F0008C81813009F072C08A81282F30E03E83D0
:101500002D838D819E818130910549F12D813E8110
:10151000223031052CF48D819E81009761F05BC0F3
:101520002D813E812230310571F18D819E81833084
:101530009105E9F150C0ABE3B0E0EBE3F0E080816E
:10154000482F8B81282F30E081E090E0022E02C0EE
:10155000880F991F0A94E2F7842B8C9344C0A8E368
:10156000B0E0E8E3F0E08081482F8B81282F30E065
:1015700081E090E0022E02C0880F991F0A94E2F7E2
:10158000842B8C9330C0A5E3B0E0E5E3F0E08081EC
:10159000482F8B81282F30E081E090E0022E02C09E
:1015A000880F991F0A94E2F7842B8C931CC0A2E346
:1015B000B0E0E2E3F0E08081482F8B81282F30E01B
:1015C00081E090E0022E02C0880F991F0A94E2F792
:1015D000842B8C9308C081E0898305C081E08983D6
:1015E00002C081E08983898128960FB6F894DEBF16
:1015F0000FBECDBFCF91DF910895DF93CF9300D081
:1016000000D00F92CDB7DEB78A836B8319828A81AF
:10161000282F30E03D832C838C819D818130910582
:10162000D1F02C813D81223031052CF48C819D81BB
:10163000009761F01FC02C813D812230310581F07F
:101640008C819D818330910581F014C0EBE3F0E043
:101650008B81808311C0E8E3F0E08B8180830CC034
:10166000E5E3F0E08B81808307C0E2E3F0E08B816B
:10167000808302C081E0898389810F900F900F9051
:101680000F900F90CF91DF910895DF93CF93CDB757
:10169000DEB727970FB6F894DEBF0FBECDBF8A83A3
:1016A0006B835D834C8319828B81883008F0AAC0DC
:1016B0008C819D81009709F4A5C08A81282F30E094
:1016C0003F832E834E815F8141305105C1F18E8170
:1016D0009F818230910534F42E813F81211531059F
:1016E00071F08DC04E815F814230510509F447C0D1
:1016F0008E819F818330910509F461C080C0E9E348
:10170000F0E08081482F50E08B81282F30E081E08D
:1017100090E002C0880F991F2A95E2F79A012823CA
:1017200039238B81882F90E0A90102C055954795F8
:101730008A95E2F7CA01EC81FD81808365C0E6E30A
:10174000F0E08081482F50E08B81282F30E081E04D
:1017500090E002C0880F991F2A95E2F79A0128238A
:1017600039238B81882F90E0A90102C055954795B8
:101770008A95E2F7CA01EC81FD81808345C0E3E3ED
:10178000F0E08081482F50E08B81282F30E081E00D
:1017900090E002C0880F991F2A95E2F79A0128234A
:1017A00039238B81882F90E0A90102C05595479578
:1017B0008A95E2F7CA01EC81FD81808325C0E0E3D0
:1017C000F0E08081482F50E08B81282F30E081E0CD
:1017D00090E002C0880F991F2A95E2F79A0128230A
:1017E00039238B81882F90E0A90102C05595479538
:1017F0008A95E2F7CA01EC81FD81808305C081E012
:10180000898302C081E08983898127960FB6F89485
:10181000DEBF0FBECDBFCF91DF910895DF93CF9391
:10182000CDB7DEB762970FB6F894DEBF0FBECDBF5F
:10183000898B6A8B9E01205F3F4F89896A89A90144
:101840000E94450B0DC09E01205F3F4F89896A8928
:10185000A9010E94450B8889813011F481E08F87AE
:101860008889882381F38889882321F38F858823B9
:1018700009F380E090E0A0EFB1E48B879C87AD870F
:10188000BE876B857C858D859E8520E030E44CE1AC
:1018900055E40E941F02DC01CB018F839887A98742
:1018A000BA876F81788589859A8520E030E040E8A5
:1018B0005FE30E94790388232CF481E090E09E830B
:1018C0008D833FC06F81788589859A8520E03FEFC1
:1018D0004FE757E40E94190318164CF56B857C8579
:1018E0008D859E8520E030E040E251E40E941F0299
:1018F000DC01CB01BC01CD010E944900DC01CB0120
:101900009E838D830FC08AEF90E09C838B838B81B5
:101910009C810197F1F79C838B838D819E81019738
:101920009E838D838D819E81009769F714C06F819E
:10193000788589859A850E944900DC01CB019E83C8
:101940008D838D819E819A83898389819A81019774
:10195000F1F79A8389839E01205F3F4F89896A89C5
:10196000A9010E94450B8889813009F063CF81E08D
:1019700062960FB6F894DEBF0FBECDBFCF91DF9158
:101980000895DF93CF93CDB7DEB7A2970FB6F89443
:10199000DEBF0FBECDBF8FEF8983CE0105969F8F2F
:1019A0008E8FE1E7F0E0F9A3E8A3F0E1FAA3E8A164
:1019B000F9A1008088A199A1019699A388A3EE8D31
:1019C000FF8D00828E8D9F8D01969F8F8E8F9AA1A5
:1019D00091509AA3EAA1EE2351F71D8A81E08E8BE4
:1019E00082E08F8B83E0888F84E0898F85E08A8F07
:1019F00086E08B8F87E08C8F1B8262C08B81282FC3
:101A000030E0CE014596FC01E20FF31F908183E0A8
:101A1000692F40E00E94EB091A823DC08A81282F7D
:101A200030E0CE014996FC01E20FF31F90819E0148
:101A30002C5F3F4F83E0692FA9010E94450B8C81E9
:101A4000882331F58A81282F30E0CE014996FC01A8
:101A5000E20FF31F908183E0692F0E940E0C882310
:101A6000B9F08A81282F30E08B81482F50E0220F77
:101A7000331F220F331FCE010196820F931F840F55
:101A8000951FFC01349680818983F981FD8F1EC0EA
:101A90008A818F5F8A838A81843008F4BFCF8B81EB
:101AA000282F30E0CE014596FC01E20FF31F908114
:101AB00083E0692F41E00E94EB098B818F5F8B836C
:101AC0008B81843008F49ACF89818D8F8D8DA29679
:101AD0000FB6F894DEBF0FBECDBFCF91DF91089552
:101AE000DF93CF93CDB7DEB7EAE3F0E08FEF8083EB
:101AF000E7E3F0E01082E4E3F0E087E08083E1E3F5
:101B0000F0E08FE08083EBE3F0E01082E8E3F0E0C8
:101B10001082E5E3F0E01082E2E3F0E08FEF8083F3
:101B2000CF91DF910895DF93CF93CDB7DEB7639761
:101B30000FB6F894DEBF0FBECDBF8A8B6B8B81E0F2
:101B400090E00E94EE0F998B888B288939898A89C9
:101B50006B89A9010E94450B0EC02889398983E051
:101B600060E0A9010E94450BE889F98980818130F4
:101B700011F481E08F87E889F9898081882369F3EE
:101B8000E889F98980818823D1F28F858823B9F289
:101B900080E090E0A0EFB1E48B879C87AD87BE87A3
:101BA0006B857C858D859E8520E030E44CE155E495
:101BB0000E941F02DC01CB018F839887A987BA8717
:101BC0006F81788589859A8520E030E040E85FE381
:101BD0000E94790388232CF481E090E09E838D831A
:101BE0003FC06F81788589859A8520E03FEF4FE778
:101BF00057E40E94190318164CF56B857C858D857A
:101C00009E8520E030E040E251E40E941F02DC01AA
:101C1000CB01BC01CD010E944900DC01CB019E83B8
:101C20008D830FC08AEF90E09C838B838B819C8196
:101C30000197F1F79C838B838D819E8101979E8311
:101C40008D838D819E81009769F714C06F8178859F
:101C500089859A850E944900DC01CB019E838D8392
:101C60008D819E819A83898389819A810197F1F779
:101C70009A8389832889398983E060E0A9010E94D9
:101C8000450BE889F9898081813009F058CF81E0DE
:101C900063960FB6F894DEBF0FBECDBFCF91DF9134
:101CA0000895DF93CF93CDB7DEB765970FB6F8945D
:101CB000DEBF0FBECDBF0E94700D0E94DF068EE01A
:101CC0000E94A3051F860E94C10C8F878F858F3FBE
:101CD000D1F38F85282F30E03D8B2C8B8C899D890B
:101CE0008730910509F4FDC02C893D8928303105E4
:101CF00054F58C899D898330910509F4E2C02C89C3
:101D00003D892430310594F48C899D898130910579
:101D100009F4CFC02C893D89223031050CF0CDC0AB
:101D20008C899D89009709F44BC0CDCF2C893D89C2
:101D30002530310509F4CDC08C899D898630910507
:101D40000CF0CBC0C2C02C893D892233310509F487
:101D5000D8C08C899D89833391059CF42C893D8959
:101D60002930310509F4C5C08C899D8989309105D8
:101D70000CF4BBC02C893D892832310509F4BDC063
:101D8000A2CF8C899D898634910509F4C2C02C8923
:101D90003D89273431053CF48C899D898C3391052C
:101DA00009F4B3C090CF2C893D892A35310509F457
:101DB000B8C08C899D898436910509F4AEC083CF63
:101DC00080E30E94410680E090E0AAEFB3E48B87B5
:101DD0009C87AD87BE876B857C858D859E8520E041
:101DE00030E44CE155E40E941F02DC01CB018F83FB
:101DF0009887A987BA876F81788589859A8520E039
:101E000030E040E85FE30E94790388232CF481E00E
:101E100090E09E838D833FC06F81788589859A8508
:101E200020E03FEF4FE757E40E94190318164CF5E6
:101E30006B857C858D859E8520E030E040E251E415
:101E40000E941F02DC01CB01BC01CD010E944900B0
:101E5000DC01CB019E838D830FC08AEF90E09C83D1
:101E60008B838B819C810197F1F79C838B838D8180
:101E70009E8101979E838D838D819E81009769F756
:101E800014C06F81788589859A850E944900DC019C
:101E9000CB019E838D838D819E819A8389838981E5
:101EA0009A810197F1F79A83898388E10E94A305BB
:101EB0000ACF81E30E94410606CF82E30E944106D9
:101EC00002CF83E30E944106FECE84E30E944106D6
:101ED000FACE85E30E944106F6CE86E30E944106D3
:101EE000F2CE87E30E944106EECE88E30E944106CF
:101EF000EACE89E30E944106E6CE8BE20E944106CB
:101F0000E2CE8DE20E944106DECE8AE20E944106C8
:101F1000DACE8FE20E944106D6CE8DE30E944106C2
:101F2000D2CE81E00E94A305CECEA1E21A2EAA1B3A
:101F3000BB1BFD010DC0AA1FBB1FEE1FFF1FA21779
:101F4000B307E407F50720F0A21BB30BE40BF50B76
:101F5000661F771F881F991F1A9469F760957095FF
:101F6000809590959B01AC01BD01CF0108952F9202
:101F70003F924F925F926F927F928F929F92AF9219
:101F8000BF92CF92DF92EF92FF920F931F93CF9366
:101F9000DF93CDB7DEB7CA1BDB0B0FB6F894DEBFFD
:101FA0000FBECDBF09942A88398848885F846E8423
:101FB0007D848C849B84AA84B984C884DF80EE806D
:101FC000FD800C811B81AA81B981CE0FD11D0FB676
:101FD000F894DEBF0FBECDBFED010895CF93DF9320
:101FE000BC018230910510F462E070E0A0918400A1
:101FF000B0918500ED01E0E0F0E040E050E021C06C
:10200000888199818617970769F48A819B81309727
:1020100019F09383828304C0909385008093840099
:10202000FE0134C06817790738F44115510519F0DD
:102030008417950708F4AC01FE018A819B819C01FD
:10204000E9012097E9F641155105A9F1CA01861B5E
:10205000970B049708F4BA01E0E0F0E02AC08D91F4
:102060009C91119784179507F9F46417750781F40B
:1020700012968D919C911397309719F093838283D8
:1020800004C09093850080938400FD0132964FC078
:10209000CA01861B970BFD01E80FF91F619371932D
:1020A00002978D939C9343C0FD01828193819C0193
:1020B000D9011097A1F68091820090918300892B1D
:1020C00041F480916D0090916E0090938300809315
:1020D000820040916F00509170004115510541F40C
:1020E0004DB75EB780916B0090916C00481B590B07
:1020F000209182003091830024173507B0F4CA0183
:10210000821B930B8617970780F0AB014E5F5F4FE2
:102110008417950750F0420F531F5093830040934C
:102120008200F9016193719302C0E0E0F0E0CF0119
:10213000DF91CF910895CF93DF93009709F450C0BA
:10214000EC0122971B821A82A0918400B091850035
:10215000109709F140E050E0AC17BD0708F1BB83D0
:10216000AA83FE0121913191E20FF31FAE17BF0741
:1021700079F48D919C911197280F391F2E5F3F4F55
:102180003983288312968D919C9113979B838A8320
:102190004115510571F4D0938500C093840020C08F
:1021A00012968D919C911397AD01009711F0DC016F
:1021B000D3CFFA01D383C28321913191E20FF31F70
:1021C000CE17DF0769F488819981280F391F2E5FA8
:1021D0003F4FFA01318320838A819B8193838283DD
:1021E000DF91CF910895AEE0B0E0E9EFF0E10C941B
:1021F000C50F0D891E8986E08C831A8309838FEFB2
:102200009FE79E838D839E01275E3F4FCE010196FF
:102210006F89788DA9010E9417112F813885020FCF
:10222000131FF80110822E96E4E00C94E10FABE04E
:10223000B0E0EDE1F1E10C94B70F3C012B015A0144
:10224000FC0117821682838181FD03C06FEF7FEF4F
:10225000C6C19AE0892E1E010894211C311CF3018D
:102260002381F20123FD859123FF81912F01882392
:1022700009F4B2C1853239F423FD859123FF8191A0
:102280002F01853229F490E0B3010E940A13E7CFB1
:10229000982FFF24EE249924FFE1FF15D0F09B3204
:1022A00069F09C3228F4903259F0933291F40EC0C8
:1022B0009D3249F0903369F441E024C052E0F52AA0
:1022C00084E0F82A28C098E0F92A25C0E0E1FE2A37
:1022D00022C0F7FC29C0892F80538A3070F4F6FEA3
:1022E00005C0989C902C1124980E15C0E89CE02CF9
:1022F0001124E80EF0E2FF2A0EC09E3229F4F6FC0B
:102300006BC140E4F42A07C09C3619F450E8F52A62
:1023100002C0983649F4F20123FD959123FF919173
:102320002F01992309F0B8CF892F8554833018F0F5
:102330008052833038F444E050E0A40EB51E5FE3D1
:1023400059830FC0933631F0933779F0933509F004
:1023500056C020C0F5018081898342E050E0A40E80
:10236000B51E610101E010E012C0F501C080D1800E
:10237000F6FC03C06FEF7FEF02C0692D70E042E012
:1023800050E0A40EB51EC6010E94FF128C015FE74B
:10239000F52214C0F501C080D180F6FC03C06FEFB8
:1023A0007FEF02C0692D70E042E050E0A40EB51E40
:1023B000C6010E94F4128C0150E8F52AF3FE07C012
:1023C0001AC080E290E0B3010E940A13EA948E2DB5
:1023D00090E008171907A8F30EC0F601F7FC8591E5
:1023E000F7FE81916F0190E0B3010E940A13E110A2
:1023F000EA94015010400115110579F7EAC09436AE
:1024000011F0993669F5F7FE08C0F5012081318198
:102410004281538184E090E00AC0F501808191817E
:102420009C01442737FD4095542F82E090E0A80E90
:10243000B91E9FE6F92257FF09C050954095309587
:1024400021953F4F4F4F5F4FE0E8FE2ACA01B90187
:10245000A1012AE030E00E943613D82ED21840C0E5
:10246000953729F41F2D1F7E2AE030E01DC01F2D57
:10247000197F9F3661F0903720F4983509F0ACC091
:102480000FC0903739F0983709F0A6C004C028E093
:1024900030E00AC0106114FD146020E130E004C097
:1024A00014FD166020E132E017FF08C0F5016081DD
:1024B00071818281938144E050E008C0F501808100
:1024C0009181BC0180E090E042E050E0A40EB51E96
:1024D000A1010E943613D82ED2188FE7F82EF122D0
:1024E000F6FE0BC05EEFF522D91438F4F4FE07C0F7
:1024F000F2FC05C08FEEF82202C01D2D01C0192D7F
:10250000F4FE0DC0FE01ED0DF11D8081803319F444
:1025100099EEF92208C01F5FF2FE05C003C08F2D9F
:10252000867809F01F5F0F2DF3FC14C0F0FE0FC07A
:102530001E1510F09D2C0BC09D2C9E0C911A1E2D6B
:1025400006C080E290E0B3010E940A131F5F1E15CF
:10255000C0F304C01E1510F4E11A01C0EE2404FFFC
:102560000FC080E390E0B3010E940A1302FF1DC078
:1025700001FD03C088E790E00EC088E590E00BC045
:10258000802F867891F001FF02C08BE201C080E2CB
:10259000F7FC8DE290E0B3010E940A1306C080E3CD
:1025A00090E0B3010E940A139A94D914C0F3DA940C
:1025B000F101ED0DF11D808190E0B3010E940A133D
:1025C000DD20A9F706C080E290E0B3010E940A1363
:1025D000EA94EE20C1F743CEF30166817781CB0107
:1025E0002B96E2E10C94D30FFC01059061507040F2
:1025F0000110D8F7809590958E0F9F1F0895FC01CC
:102600006150704001900110D8F7809590958E0F21
:102610009F1F08950F931F93CF93DF938C01EB01BE
:102620008B8181FF1BC082FF0DC02E813F818C8179
:102630009D812817390764F4E881F9810193F983B2
:10264000E88306C0E885F985802F0995892B31F448
:102650008E819F8101969F838E8302C00FEF1FEFB3
:10266000C801DF91CF911F910F910895FA01AA2718
:10267000283051F1203181F1E8946F936E7F6E5FC5
:102680007F4F8F4F9F4FAF4FB1E03ED0B4E03CD073
:10269000670F781F891F9A1FA11D680F791F8A1F56
:1026A000911DA11D6A0F711D811D911DA11D20D0BD
:1026B00009F468943F912AE0269F11243019305D77
:1026C0003193DEF6CF010895462F4770405D419368
:1026D000B3E00FD0C9F7F6CF462F4F70405D4A33B5
:1026E00018F0495D31FD4052419302D0A9F7EACF7D
:1026F000B4E0A6959795879577956795BA95C9F7AC
:1027000000976105710508959B01AC010A2E06949E
:102710005795479537952795BA95C9F7620F731F57
:0C272000841F951FA01D0895F894FFCFA2
:10272C00256400000000000000000020008600006E
:10273C000001020328040506320708093C5A00640C
:02274C00460045
:00000001FF
