:100000000C942A000C9447000C9447000C94470071
:100010000C9447000C9447000C9447000C94470044
:100020000C9447000C9447000C9447000C94470034
:100030000C9447000C9447000C9447000C94470024
:100040000C9447000C9447000C9447000C94470014
:100050000C94470011241FBECFE5D8E0DEBFCDBF12
:1000600010E0A0E6B0E0ECE1F6E102C005900D92F0
:10007000AE36B107D9F710E0AEE6B0E001C01D9290
:10008000A237B107E1F70E9420090C940C0B0C94E5
:100090000000EF92FF920F931F937B018C0120E0F1
:1000A00030E040E05FE40E94490388238CF0C801FF
:1000B000B70120E030E040E05FE40E94C1010E940F
:1000C000A9039B01AC01205030404040504806C07D
:1000D000C801B7010E94A9039B01AC01B901CA0183
:1000E0001F910F91FF90EF900895A0E0B0E0EBE733
:1000F000F0E00C94D009DC012B01FA019C919230C4
:1001000008F439C1EB018881823008F433C194309E
:1001100069F4843009F02FC111969C91119789815F
:10012000981709F428C1A0E6B0E025C1843009F48D
:1001300021C18230A9F4923009F01DC19A01AD01AC
:1001400088E0EA010990AE01E90109929E0181501F
:10015000C1F7E201898111969C918923818308C1AD
:10016000923009F407C112962D903C901397EB0141
:100170008A819B811496AD90BD90CD90DC901797AD
:10018000EC80FD800E811F819101281B390BB90184
:1001900037FF04C066277727621B730B6032710537
:1001A0000CF061C0121613066CF537014801062EDB
:1001B00004C096948794779467940A94D2F721E0C8
:1001C00030E040E050E004C0220F331F441F551FB1
:1001D0006A95D2F721503040404050402E213F21B7
:1001E00040235123211531054105510521F021E01E
:1001F00030E040E050E079018A01E628F72808293C
:1002000019293CC0232BD1F1260E371E350146019A
:10021000062E04C096948794779467940A94D2F734
:1002200021E030E040E050E004C0220F331F441FC3
:10023000551F6A95D2F721503040404050402A2146
:100240003B214C215D21211531054105510521F04E
:1002500021E030E040E050E059016A01A628B728CB
:10026000C828D9280BC0821593052CF01C01AA249C
:10027000BB24650103C0EE24FF24870111969C91E5
:10028000D20111968C91981709F445C0992339F041
:10029000A80197012A193B094C095D0906C0A6016E
:1002A00095012E193F09400B510B57FD08C01182D3
:1002B0003382228224833583468357831DC081E0A5
:1002C00081833382228288279927DC01821B930B4A
:1002D000A40BB50B84839583A683B7830DC0220F2F
:1002E000331F441F551F24833583468357838281E0
:1002F000938101979383828324813581468157813D
:10030000DA01C9010197A109B1098F5F9F4FAF4F72
:10031000BF4328F30BC0918333822282EA0CFB1C7B
:100320000C1D1D1DE482F5820683178383E0808304
:10033000248135814681578157FF1AC0C901AA27F8
:1003400097FDA095BA2F81709070A070B0705695EF
:10035000479537952795822B932BA42BB52B848318
:100360009583A683B7838281938101969383828349
:10037000DF0101C0D201CD01CDB7DEB7E2E10C94BF
:10038000EC09A0E2B0E0E7ECF1E00C94DC09698351
:100390007A838B839C832D833E834F835887E9E048
:1003A000EE2EF12CEC0EFD1ECE010196B7010E943F
:1003B000D2048E010F5E1F4FCE010596B8010E9438
:1003C000D2048A8991E089278A8BC701B801AE01DE
:1003D000475E5F4F0E9475000E94FD03A096E6E015
:1003E0000C94F809A0E2B0E0E8EFF1E00C94DC092D
:1003F00069837A838B839C832D833E834F835887C5
:10040000F9E0EF2EF12CEC0EFD1ECE010196B701A6
:100410000E94D2048E010F5E1F4FCE010596B801D7
:100420000E94D204C701B801AE01475E5F4F0E942F
:1004300075000E94FD03A096E6E00C94F809A0E286
:10044000B0E0E5E2F2E00C94D00969837A838B8313
:100450009C832D833E834F835887CE010196BE0136
:10046000675F7F4F0E94D204CE010596BE016F5E8A
:100470007F4F0E94D2049985923088F0898982301A
:10048000C8F0943019F4823051F404C0843029F457
:10049000923081F480E690E0C6C0923049F420E0CA
:1004A0009A858A89981321E02A87CE010996BBC0D4
:1004B000823049F420E09A858A89981321E02A8BBA
:1004C000CE014196B0C02D843E844F8458886D88FB
:1004D0007E888F88988CEE24FF248701AA24BB2471
:1004E000650140E050E060E070E0E0E0F0E0C10174
:1004F00081709070892BE9F0E60CF71C081D191D1E
:100500009A01AB012A0D3B1D4C1D5D1D80E090E062
:10051000A0E0B0E0E614F7040805190520F481E036
:1005200090E0A0E0B0E0BA01A901480F591F6A1F8E
:100530007B1FAA0CBB1CCC1CDD1C97FE08C081E0F5
:1005400090E0A0E0B0E0A82AB92ACA2ADB2A3196B6
:10055000E032F10549F0660C771C881C991C569412
:10056000479437942794C3CFFA85EA892B893C892D
:100570008B859C85280F391F2E5F3F4F17C0CA01FE
:1005800081709070892B61F016950795F794E79428
:1005900080E090E0A0E0B0E8E82AF92A0A2B1B2BC3
:1005A00076956795579547952F5F3F4F77FDE7CF36
:1005B0000CC0440F551F661F771F17FD4160EE0CDE
:1005C000FF1C001F111F21503040403090E05907A0
:1005D00090E0690790E4790760F32B8F3C8FDB0193
:1005E000CA018F779070A070B07080349105A1051A
:1005F000B10561F447FD0AC0E114F10401051105DC
:1006000029F0405C5F4F6F4F7F4F40781A8EFE1786
:1006100011F081E08A8F4D8F5E8F6F8F78A383E01A
:10062000898FCE0149960E94FD03A096E2E10C94C9
:10063000EC09A8E1B0E0EFE1F3E00C94DC09698398
:100640007A838B839C832D833E834F83588789E0F5
:10065000E82EF12CEC0EFD1ECE010196B7010E9492
:10066000D2048E010F5E1F4FCE010596B8010E9485
:10067000D2048985823040F08989823028F0C70110
:10068000B8010E944A0501C08FEF6896E6E00C941D
:10069000F809A8E1B0E0EFE4F3E00C94DC09698329
:1006A0007A838B839C832D833E834F83588789E095
:1006B000E82EF12CEC0EFD1ECE010196B7010E9432
:1006C000D2048E010F5E1F4FCE010596B8010E9425
:1006D000D2048985823040F08989823028F0C701B0
:1006E000B8010E944A0501C08FEF6896E6E00C94BD
:1006F000F809A8E1B0E0EFE7F3E00C94DC096983C6
:100700007A838B839C832D833E834F83588789E034
:10071000E82EF12CEC0EFD1ECE010196B7010E94D1
:10072000D2048E010F5E1F4FCE010596B8010E94C4
:10073000D2048985823040F08989823028F0C7014F
:10074000B8010E944A0501C081E06896E6E00C9479
:10075000F809ACE0B0E0EFEAF3E00C94E00969835B
:100760007A838B839C83CE010196BE016B5F7F4FA2
:100770000E94D2048D81823061F1823050F1843048
:1007800021F48E81882351F12EC02F81388537FDC9
:1007900020C06E812F3131051CF06623F9F023C093
:1007A0008EE190E0821B930B29853A854B855C8511
:1007B00004C056954795379527958A95D2F76623B5
:1007C000B1F050954095309521953F4F4F4F5F4F79
:1007D0000EC020E030E040E050E009C02FEF3FEFD6
:1007E0004FEF5FE704C020E030E040E050E8B9019F
:1007F000CA012C96E2E00C94FC09DF92EF92FF9282
:100800000F931F93FC01E480F58006811781D1804E
:100810008081823048F480E090E0A0E1B0E0E82AF6
:10082000F92A0A2B1B2BA5C0843009F49FC0823003
:1008300021F4EE24FF24870105C0E114F104010531
:10084000110519F4E0E0F0E096C0628173819FEF3A
:10085000623879070CF05BC022E83FEF261B370BAC
:100860002A3131052CF020E030E040E050E02AC091
:10087000B801A701022E04C0769567955795479554
:100880000A94D2F781E090E0A0E0B0E004C0880FC5
:10089000991FAA1FBB1F2A95D2F70197A109B10979
:1008A0008E219F21A023B1230097A105B10521F03E
:1008B00081E090E0A0E0B0E09A01AB01282B392B59
:1008C0004A2B5B2BDA01C9018F779070A070B07052
:1008D00080349105A105B10539F427FF09C0205CDA
:1008E0003F4F4F4F5F4F04C0215C3F4F4F4F5F4F13
:1008F000E0E0F0E02030A0E03A07A0E04A07A0E402
:100900005A0710F0E1E0F0E079018A0127C0603871
:10091000710564F5FB01E158FF4FD801C7018F77DE
:100920009070A070B07080349105A105B10539F4C4
:10093000E7FE0DC080E490E0A0E0B0E004C08FE3EB
:1009400090E0A0E0B0E0E80EF91E0A1F1B1F17FFA1
:1009500005C016950795F794E794319687E01695AC
:100960000795F794E7948A95D1F705C0EE24FF2404
:100970008701EFEFF0E06E2F679566276795902F60
:100980009F77D794DD24D7948E2F8695492F462BB9
:10099000582F5D29B701CA011F910F91FF90EF9069
:1009A000DF900895FC01DB01408151812281622F9B
:1009B0006F7770E0221F2227221F9381892F880FD3
:1009C000822B282F30E0991F9927991F11969C930D
:1009D000119721153105A9F54115510561057105DD
:1009E00011F482E037C082E89FEF13969C938E93B8
:1009F00012979A01AB0167E0220F331F441F551F66
:100A00006A95D1F783E08C930DC0220F331F441FEA
:100A1000551F12968D919C911397019713969C9355
:100A20008E931297203080E0380780E0480780E4FA
:100A3000580758F314962D933D934D935C93179755
:100A400008952F3F310579F4411551056105710570
:100A500019F484E08C93089564FF03C081E08C93C3
:100A600012C01C9210C02F57304013963C932E9307
:100A7000129783E08C9387E0440F551F661F771F02
:100A80008A95D1F7706414964D935D936D937C9322
:100A9000179708951F93DC01FB019C91923008F495
:100AA00047C08081823008F443C0943051F41196DD
:100AB0001C91843099F58181682F70E0611B710968
:100AC0003FC0843021F0923031F48230B9F181811D
:100AD000882389F12DC011961C9111978230F1F075
:100AE00081811817D9F412962D913C911397828128
:100AF00093818217930794F028173907BCF0149656
:100B00008D919D910D90BC91A02D248135814681C0
:100B10005781281739074A075B0718F4112341F05A
:100B20000AC082179307A407B50740F4112319F0F0
:100B300061E070E005C06FEF7FEF02C060E070E041
:100B4000CB011F910895DF93CF93CDB7DEB72897E0
:100B50000FB6F894DEBF0FBECDBF8A836B834C8384
:100B600019828B81883008F0F4C08C81882309F0C9
:100B700077C08A81282F30E038872F838F8198852E
:100B80008130910559F12F813885223031052CF4BF
:100B90008F819885009769F060C02F813885223059
:100BA000310589F18F8198858330910509F440C022
:100BB00054C0AAE3B0E0EAE3F0E08081482F8B81E3
:100BC000282F30E081E090E0022E02C0880F991FAC
:100BD0000A94E2F7809584238C93BDC0A7E3B0E02C
:100BE000E7E3F0E08081482F8B81282F30E081E01F
:100BF00090E0022E02C0880F991F0A94E2F78095B8
:100C000084238C93A8C0A4E3B0E0E4E3F0E0808107
:100C1000482F8B81282F30E081E090E0022E02C027
:100C2000880F991F0A94E2F7809584238C9393C0D0
:100C3000A1E3B0E0E1E3F0E08081482F8B81282F31
:100C400030E081E090E0022E02C0880F991F0A94E4
:100C5000E2F7809584238C937EC081E089837BC0FA
:100C60008C81813009F072C08A81282F30E03E8368
:100C70002D838D819E818130910549F12D813E81A9
:100C8000223031052CF48D819E81009761F05BC08C
:100C90002D813E812230310571F18D819E8183301D
:100CA0009105E9F150C0AAE3B0E0EAE3F0E0808109
:100CB000482F8B81282F30E081E090E0022E02C087
:100CC000880F991F0A94E2F7842B8C9344C0A7E302
:100CD000B0E0E7E3F0E08081482F8B81282F30E0FF
:100CE00081E090E0022E02C0880F991F0A94E2F77B
:100CF000842B8C9330C0A4E3B0E0E4E3F0E0808187
:100D0000482F8B81282F30E081E090E0022E02C036
:100D1000880F991F0A94E2F7842B8C931CC0A1E3DF
:100D2000B0E0E1E3F0E08081482F8B81282F30E0B4
:100D300081E090E0022E02C0880F991F0A94E2F72A
:100D4000842B8C9308C081E0898305C081E089836E
:100D500002C081E08983898128960FB6F894DEBFAE
:100D60000FBECDBFCF91DF910895DF93CF9300D019
:100D700000D00F92CDB7DEB78A836B8319828A8148
:100D8000282F30E03D832C838C819D81813091051B
:100D9000D1F02C813D81223031052CF48C819D8154
:100DA000009761F01FC02C813D812230310581F018
:100DB0008C819D818330910581F014C0EAE3F0E0DD
:100DC0008B81808311C0E7E3F0E08B8180830CC0CE
:100DD000E4E3F0E08B81808307C0E1E3F0E08B8106
:100DE000808302C081E0898389810F900F900F90EA
:100DF0000F900F90CF91DF910895DF93CF93CDB7F0
:100E0000DEB728970FB6F894DEBF0FBECDBF8A833A
:100E10006B834C8319828B81883008F0F4C08C81FD
:100E2000882309F077C08A81282F30E038872F8304
:100E30008F8198858130910559F12F813885223035
:100E400031052CF48F819885009769F060C02F815F
:100E500038852230310589F18F819885833091055D
:100E600009F440C054C0ABE3B0E0EBE3F0E08081B4
:100E7000482F8B81282F30E081E090E0022E02C0C5
:100E8000880F991F0A94E2F7809584238C93BDC044
:100E9000A8E3B0E0E8E3F0E08081482F8B81282FC1
:100EA00030E081E090E0022E02C0880F991F0A9482
:100EB000E2F7809584238C93A8C0A5E3B0E0E5E336
:100EC000F0E08081482F8B81282F30E081E090E096
:100ED000022E02C0880F991F0A94E2F7809584239E
:100EE0008C9393C0A2E3B0E0E2E3F0E08081482F6E
:100EF0008B81282F30E081E090E0022E02C0880F25
:100F0000991F0A94E2F7809584238C937EC081E038
:100F100089837BC08C81813009F072C08A81282F3F
:100F200030E03E832D838D819E818130910549F192
:100F30002D813E81223031052CF48D819E810097D8
:100F400061F05BC02D813E812230310571F18D81D0
:100F50009E8183309105E9F150C0ABE3B0E0EBE353
:100F6000F0E08081482F8B81282F30E081E090E0F5
:100F7000022E02C0880F991F0A94E2F7842B8C93EB
:100F800044C0A8E3B0E0E8E3F0E08081482F8B8123
:100F9000282F30E081E090E0022E02C0880F991FD8
:100FA0000A94E2F7842B8C9330C0A5E3B0E0E5E32C
:100FB000F0E08081482F8B81282F30E081E090E0A5
:100FC000022E02C0880F991F0A94E2F7842B8C939B
:100FD0001CC0A2E3B0E0E2E3F0E08081482F8B8107
:100FE000282F30E081E090E0022E02C0880F991F88
:100FF0000A94E2F7842B8C9308C081E0898305C0B2
:1010000081E0898302C081E08983898128960FB6B7
:10101000F894DEBF0FBECDBFCF91DF910895DF936F
:10102000CF9300D000D00F92CDB7DEB78A836B8309
:1010300019828A81282F30E03D832C838C819D8109
:1010400081309105D1F02C813D81223031052CF485
:101050008C819D81009761F01FC02C813D812230E1
:10106000310581F08C819D818330910581F014C020
:10107000EBE3F0E08B81808311C0E8E3F0E08B814B
:1010800080830CC0E5E3F0E08B81808307C0E2E35E
:10109000F0E08B81808302C081E0898389810F9099
:1010A0000F900F900F900F90CF91DF910895DF93E5
:1010B000CF93CDB7DEB727970FB6F894DEBF0FBE3C
:1010C000CDBF8A836B835D834C8319828B8188308B
:1010D00008F0AAC08C819D81009709F4A5C08A817F
:1010E000282F30E03F832E834E815F8141305105B0
:1010F000C1F18E819F818230910534F42E813F8130
:101100002115310571F08DC04E815F81423051054E
:1011100009F447C08E819F818330910509F461C035
:1011200080C0E9E3F0E08081482F50E08B81282FD8
:1011300030E081E090E002C0880F991F2A95E2F725
:101140009A01282339238B81882F90E0A90102C0BE
:10115000559547958A95E2F7CA01EC81FD81808318
:1011600065C0E6E3F0E08081482F50E08B81282FB6
:1011700030E081E090E002C0880F991F2A95E2F7E5
:101180009A01282339238B81882F90E0A90102C07E
:10119000559547958A95E2F7CA01EC81FD818083D8
:1011A00045C0E3E3F0E08081482F50E08B81282F99
:1011B00030E081E090E002C0880F991F2A95E2F7A5
:1011C0009A01282339238B81882F90E0A90102C03E
:1011D000559547958A95E2F7CA01EC81FD81808398
:1011E00025C0E0E3F0E08081482F50E08B81282F7C
:1011F00030E081E090E002C0880F991F2A95E2F765
:101200009A01282339238B81882F90E0A90102C0FD
:10121000559547958A95E2F7CA01EC81FD81808357
:1012200005C081E0898302C081E089838981279696
:101230000FB6F894DEBF0FBECDBFCF91DF910895FA
:10124000DF93CF93CDB7DEB760970FB6F894DEBFCC
:101250000FBECDBF83E060E040E00E94A30583E0C5
:1012600060E041E00E94FD0683E061E041E00E9411
:10127000A30581E090E00E94070A988B8F872F8555
:10128000388983E060E0A9010E945708EF85F8895A
:101290008081882309F078C080E090E0A0EFB1E47D
:1012A0008B879C87AD87BE876B857C858D859E856A
:1012B00020E030E44CE155E40E941F02DC01CB0148
:1012C0008F839887A987BA876F81788589859A8562
:1012D00020E030E040E85FE30E94790388232CF4AB
:1012E00081E090E09E838D833FC06F817885898502
:1012F0009A8520E03FEF4FE757E40E941903181644
:101300004CF56B857C858D859E8520E030E040E244
:1013100051E40E941F02DC01CB01BC01CD010E94FF
:101320004900DC01CB019E838D830FC08AEF90E0E2
:101330009C838B838B819C810197F1F79C838B83AA
:101340008D819E8101979E838D838D819E810097E3
:1013500069F714C06F81788589859A850E94490054
:10136000DC01CB019E838D838D819E819A8389834D
:1013700089819A810197F1F79A83898383E061E0FB
:1013800041E00E94FD067BCFEF85F88980818130A6
:1013900009F075CF83E061E040E00E94FD066FCF69
:1013A0002F923F924F925F926F927F928F929F9275
:1013B000AF92BF92CF92DF92EF92FF920F931F9363
:1013C000CF93DF93CDB7DEB7CA1BDB0B0FB6F89414
:1013D000DEBF0FBECDBF09942A88398848885F8454
:1013E0006E847D848C849B84AA84B984C884DF80C5
:1013F000EE80FD800C811B81AA81B981CE0FD11DA9
:101400000FB6F894DEBF0FBECDBFED010895CF93A8
:10141000DF93BC018230910510F462E070E0A0918E
:101420007000B0917100ED01E0E0F0E040E050E0CC
:1014300021C0888199818617970769F48A819B81E9
:10144000309719F09383828304C090937100809346
:101450007000FE0134C06817790738F44115510552
:1014600019F08417950708F4AC01FE018A819B816D
:101470009C01E9012097E9F641155105A9F1CA013E
:10148000861B970B049708F4BA01E0E0F0E02AC04D
:101490008D919C91119784179507F9F4641775073E
:1014A00081F412968D919C911397309719F0938344
:1014B000828304C09093710080937000FD01329686
:1014C0004FC0CA01861B970BFD01E80FF91F6193FE
:1014D000719302978D939C9343C0FD018281938108
:1014E0009C01D9011097A1F680916E0090916F0038
:1014F000892B41F480916A0090916B0090936F006A
:1015000080936E0040916C0050916D004115510523
:1015100041F44DB75EB78091680090916900481B17
:10152000590B20916E0030916F0024173507B0F4ED
:10153000CA01821B930B8617970780F0AB014E5FA1
:101540005F4F8417950750F0420F531F50936F0061
:1015500040936E00F9016193719302C0E0E0F0E006
:10156000CF01DF91CF910895CF93DF93009709F4D6
:1015700050C0EC0122971B821A82A0917000B0919A
:101580007100109709F140E050E0AC17BD0708F179
:10159000BB83AA83FE0121913191E20FF31FAE17A5
:1015A000BF0779F48D919C911197280F391F2E5FF9
:1015B0003F4F3983288312968D919C9113979B837B
:1015C0008A834115510571F4D0937100C093700066
:1015D00020C012968D919C911397AD01009711F048
:1015E000DC01D3CFFA01D383C28321913191E20F81
:1015F000F31FCE17DF0769F488819981280F391FFF
:101600002E5F3F4FFA01318320838A819B81938330
:0C1610008283DF91CF910895F894FFCF02
:0E161C0000000000000000002000720000002E
:00000001FF
