:100000000C942A000C943F000C943F000C943F0089
:100010000C943F000C943F000C943F000C943F0064
:100020000C943F000C943F000C943F000C943F0054
:100030000C943F000C943F000C943F000C943F0044
:100040000C943F000C943F000C943F000C943F0034
:100050000C943F0011241FBECFE5D8E0DEBFCDBF1A
:1000600010E0A0E6B0E0E2E7FDE102C005900D92ED
:10007000AC36B107D9F70E94130B0C94B70E0C9451
:100080000000EF92FF920F931F937B018C0120E001
:1000900030E040E05FE40E94410388238CF0C80117
:1000A000B70120E030E040E05FE40E94B9010E9427
:1000B000A1039B01AC01205030404040504806C095
:1000C000C801B7010E94A1039B01AC01B901CA019B
:1000D0001F910F91FF90EF900895A0E0B0E0E3E74B
:1000E000F0E00C94DF0BDC012B01FA019C919230C3
:1000F00008F439C1EB018881823008F433C19430AF
:1001000069F4843009F02FC111969C91119789816F
:10011000981709F428C1A3E6B0E025C1843009F49A
:1001200021C18230A9F4923009F01DC19A01AD01BC
:1001300088E0EA010990AE01E90109929E0181502F
:10014000C1F7E201898111969C918923818308C1BD
:10015000923009F407C112962D903C901397EB0151
:100160008A819B811496AD90BD90CD90DC901797BD
:10017000EC80FD800E811F819101281B390BB90194
:1001800037FF04C066277727621B730B6032710547
:100190000CF061C0121613066CF537014801062EEB
:1001A00004C096948794779467940A94D2F721E0D8
:1001B00030E040E050E004C0220F331F441F551FC1
:1001C0006A95D2F721503040404050402E213F21C7
:1001D00040235123211531054105510521F021E02E
:1001E00030E040E050E079018A01E628F72808294C
:1001F00019293CC0232BD1F1260E371E35014601AB
:10020000062E04C096948794779467940A94D2F744
:1002100021E030E040E050E004C0220F331F441FD3
:10022000551F6A95D2F721503040404050402A2156
:100230003B214C215D21211531054105510521F05E
:1002400021E030E040E050E059016A01A628B728DB
:10025000C828D9280BC0821593052CF01C01AA24AC
:10026000BB24650103C0EE24FF24870111969C91F5
:10027000D20111968C91981709F445C0992339F051
:10028000A80197012A193B094C095D0906C0A6017E
:1002900095012E193F09400B510B57FD08C01182E3
:1002A0003382228224833583468357831DC081E0B5
:1002B00081833382228288279927DC01821B930B5A
:1002C000A40BB50B84839583A683B7830DC0220F3F
:1002D000331F441F551F24833583468357838281F0
:1002E000938101979383828324813581468157814D
:1002F000DA01C9010197A109B1098F5F9F4FAF4F83
:10030000BF4328F30BC0918333822282EA0CFB1C8B
:100310000C1D1D1DE482F5820683178383E0808314
:10032000248135814681578157FF1AC0C901AA2708
:1003300097FDA095BA2F81709070A070B0705695FF
:10034000479537952795822B932BA42BB52B848328
:100350009583A683B7838281938101969383828359
:10036000DF0101C0D201CD01CDB7DEB7E2E10C94CF
:10037000FB0BA0E2B0E0EFEBF1E00C94EB0B698338
:100380007A838B839C832D833E834F835887E9E058
:10039000EE2EF12CEC0EFD1ECE010196B7010E944F
:1003A000CA048E010F5E1F4FCE010596B8010E9450
:1003B000CA048A8991E089278A8BC701B801AE01F6
:1003C000475E5F4F0E946D000E94F503A096E6E035
:1003D0000C94070CA0E2B0E0E0EFF1E00C94EB0B22
:1003E00069837A838B839C832D833E834F835887D5
:1003F000F9E0EF2EF12CEC0EFD1ECE010196B701B7
:100400000E94CA048E010F5E1F4FCE010596B801EF
:100410000E94CA04C701B801AE01475E5F4F0E9447
:100420006D000E94F503A096E6E00C94070CA0E294
:10043000B0E0EDE1F2E00C94DF0B69837A838B830B
:100440009C832D833E834F835887CE010196BE0146
:10045000675F7F4F0E94CA04CE010596BE016F5EA2
:100460007F4F0E94CA049985923088F08989823032
:10047000C8F0943019F4823051F404C0843029F467
:10048000923081F483E690E0C6C0923049F420E0D7
:100490009A858A89981321E02A87CE010996BBC0E4
:1004A000823049F420E09A858A89981321E02A8BCA
:1004B000CE014196B0C02D843E844F8458886D880B
:1004C0007E888F88988CEE24FF248701AA24BB2481
:1004D000650140E050E060E070E0E0E0F0E0C10184
:1004E00081709070892BE9F0E60CF71C081D191D2E
:1004F0009A01AB012A0D3B1D4C1D5D1D80E090E073
:10050000A0E0B0E0E614F7040805190520F481E046
:1005100090E0A0E0B0E0BA01A901480F591F6A1F9E
:100520007B1FAA0CBB1CCC1CDD1C97FE08C081E005
:1005300090E0A0E0B0E0A82AB92ACA2ADB2A3196C6
:10054000E032F10549F0660C771C881C991C569422
:10055000479437942794C3CFFA85EA892B893C893D
:100560008B859C85280F391F2E5F3F4F17C0CA010E
:1005700081709070892B61F016950795F794E79438
:1005800080E090E0A0E0B0E8E82AF92A0A2B1B2BD3
:1005900076956795579547952F5F3F4F77FDE7CF46
:1005A0000CC0440F551F661F771F17FD4160EE0CEE
:1005B000FF1C001F111F21503040403090E05907B0
:1005C00090E0690790E4790760F32B8F3C8FDB01A3
:1005D000CA018F779070A070B07080349105A1052A
:1005E000B10561F447FD0AC0E114F10401051105EC
:1005F00029F0405C5F4F6F4F7F4F40781A8EFE1797
:1006000011F081E08A8F4D8F5E8F6F8F78A383E02A
:10061000898FCE0149960E94F503A096E2E10C94E1
:10062000FB0BA8E1B0E0E7E1F3E00C94EB0B69838E
:100630007A838B839C832D833E834F83588789E005
:10064000E82EF12CEC0EFD1ECE010196B7010E94A2
:10065000CA048E010F5E1F4FCE010596B8010E949D
:10066000CA048985823040F08989823028F0C70128
:10067000B8010E94420501C08FEF6896E6E00C9435
:10068000070CA8E1B0E0E7E4F3E00C94EB0B69831E
:100690007A838B839C832D833E834F83588789E0A5
:1006A000E82EF12CEC0EFD1ECE010196B7010E9442
:1006B000CA048E010F5E1F4FCE010596B8010E943D
:1006C000CA048985823040F08989823028F0C701C8
:1006D000B8010E94420501C08FEF6896E6E00C94D5
:1006E000070CA8E1B0E0E7E7F3E00C94EB0B6983BB
:1006F0007A838B839C832D833E834F83588789E045
:10070000E82EF12CEC0EFD1ECE010196B7010E94E1
:10071000CA048E010F5E1F4FCE010596B8010E94DC
:10072000CA048985823040F08989823028F0C70167
:10073000B8010E94420501C081E06896E6E00C9491
:10074000070CACE0B0E0E7EAF3E00C94EF0B698350
:100750007A838B839C83CE010196BE016B5F7F4FB2
:100760000E94CA048D81823061F1823050F1843060
:1007700021F48E81882351F12EC02F81388537FDD9
:1007800020C06E812F3131051CF06623F9F023C0A3
:100790008EE190E0821B930B29853A854B855C8521
:1007A00004C056954795379527958A95D2F76623C5
:1007B000B1F050954095309521953F4F4F4F5F4F89
:1007C0000EC020E030E040E050E009C02FEF3FEFE6
:1007D0004FEF5FE704C020E030E040E050E8B901AF
:1007E000CA012C96E2E00C940B0CDF92EF92FF9280
:1007F0000F931F93FC01E480F58006811781D1805F
:100800008081823048F480E090E0A0E1B0E0E82A06
:10081000F92A0A2B1B2BA5C0843009F49FC0823013
:1008200021F4EE24FF24870105C0E114F104010541
:10083000110519F4E0E0F0E096C0628173819FEF4A
:10084000623879070CF05BC022E83FEF261B370BBC
:100850002A3131052CF020E030E040E050E02AC0A1
:10086000B801A701022E04C0769567955795479564
:100870000A94D2F781E090E0A0E0B0E004C0880FD5
:10088000991FAA1FBB1F2A95D2F70197A109B10989
:100890008E219F21A023B1230097A105B10521F04E
:1008A00081E090E0A0E0B0E09A01AB01282B392B69
:1008B0004A2B5B2BDA01C9018F779070A070B07062
:1008C00080349105A105B10539F427FF09C0205CEA
:1008D0003F4F4F4F5F4F04C0215C3F4F4F4F5F4F23
:1008E000E0E0F0E02030A0E03A07A0E04A07A0E412
:1008F0005A0710F0E1E0F0E079018A0127C0603882
:10090000710564F5FB01E158FF4FD801C7018F77EE
:100910009070A070B07080349105A105B10539F4D4
:10092000E7FE0DC080E490E0A0E0B0E004C08FE3FB
:1009300090E0A0E0B0E0E80EF91E0A1F1B1F17FFB1
:1009400005C016950795F794E794319687E01695BC
:100950000795F794E7948A95D1F705C0EE24FF2414
:100960008701EFEFF0E06E2F679566276795902F70
:100970009F77D794DD24D7948E2F8695492F462BC9
:10098000582F5D29B701CA011F910F91FF90EF9079
:10099000DF900895FC01DB01408151812281622FAB
:1009A0006F7770E0221F2227221F9381892F880FE3
:1009B000822B282F30E0991F9927991F11969C931D
:1009C000119721153105A9F54115510561057105ED
:1009D00011F482E037C082E89FEF13969C938E93C8
:1009E00012979A01AB0167E0220F331F441F551F76
:1009F0006A95D1F783E08C930DC0220F331F441FFB
:100A0000551F12968D919C911397019713969C9365
:100A10008E931297203080E0380780E0480780E40A
:100A2000580758F314962D933D934D935C93179765
:100A300008952F3F310579F4411551056105710580
:100A400019F484E08C93089564FF03C081E08C93D3
:100A500012C01C9210C02F57304013963C932E9317
:100A6000129783E08C9387E0440F551F661F771F12
:100A70008A95D1F7706414964D935D936D937C9332
:100A8000179708951F93DC01FB019C91923008F4A5
:100A900047C08081823008F443C0943051F41196ED
:100AA0001C91843099F58181682F70E0611B710978
:100AB0003FC0843021F0923031F48230B9F181812D
:100AC000882389F12DC011961C9111978230F1F085
:100AD00081811817D9F412962D913C911397828138
:100AE00093818217930794F028173907BCF0149666
:100AF0008D919D910D90BC91A02D248135814681D1
:100B00005781281739074A075B0718F4112341F06A
:100B10000AC082179307A407B50740F4112319F000
:100B200061E070E005C06FEF7FEF02C060E070E051
:100B3000CB011F910895DF93CF93CDB7DEB72F97E9
:100B40000FB6F894DEBF0FBECDBF8F8780E060E0A8
:100B500040E00E94CC0880E061E040E00E94CC08C8
:100B600082E06F850E94DE0980E062E041E00E9441
:100B7000CC0880E090E0A0E0B0E48B879C87AD8754
:100B8000BE876B857C858D859E8520E030E44CE1B9
:100B900055E40E941702DC01CB018F839887A98757
:100BA000BA876F81788589859A8520E030E040E8B2
:100BB0005FE30E94710388232CF481E090E09E8320
:100BC0008D833FC06F81788589859A8520E03FEFCE
:100BD0004FE757E40E94110318164CF56B857C858E
:100BE0008D859E8520E030E040E251E40E941702AE
:100BF000DC01CB01BC01CD010E944100DC01CB0135
:100C00009E838D830FC08AEF90E09C838B838B81C2
:100C10009C810197F1F79C838B838D819E81019745
:100C20009E838D838D819E81009769F714C06F81AB
:100C3000788589859A850E944100DC01CB019E83DD
:100C40008D838D819E819A83898389819A81019781
:100C5000F1F79A83898380E062E040E00E94CC084B
:100C60002F960FB6F894DEBF0FBECDBFCF91DF91A8
:100C70000895DF93CF93CDB7DEB72F970FB6F894D3
:100C8000DEBF0FBECDBF8F8780E060E041E00E94F5
:100C9000CC0880E061E040E00E94CC0882E06F85F3
:100CA0000E94DE0980E062E041E00E94CC0880E022
:100CB00090E0A0E0B0E48B879C87AD87BE876B8512
:100CC0007C858D859E8520E030E44CE155E40E94D2
:100CD0001702DC01CB018F839887A987BA876F81C0
:100CE000788589859A8520E030E040E85FE30E94BE
:100CF000710388232CF481E090E09E838D833FC0B4
:100D00006F81788589859A8520E03FEF4FE757E42A
:100D10000E94110318164CF56B857C858D859E8588
:100D200020E030E040E251E40E941702DC01CB01F8
:100D3000BC01CD010E944100DC01CB019E838D836B
:100D40000FC08AEF90E09C838B838B819C810197FD
:100D5000F1F79C838B838D819E8101979E838D8388
:100D60008D819E81009769F714C06F817885898590
:100D70009A850E944100DC01CB019E838D838D8189
:100D80009E819A83898389819A810197F1F79A8359
:100D9000898380E062E040E00E94CC082F960FB685
:100DA000F894DEBF0FBECDBFCF91DF910895DF93E2
:100DB000CF93CDB7DEB72E970FB6F894DEBF0FBE38
:100DC000CDBF80E090E0A0E2B2E48B879C87AD8746
:100DD000BE876B857C858D859E8520E030E44CE167
:100DE00055E40E941702DC01CB018F839887A98705
:100DF000BA876F81788589859A8520E030E040E860
:100E00005FE30E94710388232CF481E090E09E83CD
:100E10008D833FC06F81788589859A8520E03FEF7B
:100E20004FE757E40E94110318164CF56B857C853B
:100E30008D859E8520E030E040E251E40E9417025B
:100E4000DC01CB01BC01CD010E944100DC01CB01E2
:100E50009E838D830FC08AEF90E09C838B838B8170
:100E60009C810197F1F79C838B838D819E810197F3
:100E70009E838D838D819E81009769F714C06F8159
:100E8000788589859A850E944100DC01CB019E838B
:100E90008D838D819E819A83898389819A8101972F
:100EA000F1F79A83898388E30E949B058CE00E9476
:100EB0009B0581E00E949B052E960FB6F894DEBF3D
:100EC0000FBECDBFCF91DF910895DF93CF9300D0B8
:100ED0000F92CDB7DEB79B838A8319828A819B816B
:100EE0000097D1F00EC08981282F30E08A819B8144
:100EF000FC01E20FF31F80810E94390689818F5F18
:100F000089838981282F30E08A819B81FC01E20F4F
:100F1000F31F8081882339F70F900F900F90CF91A6
:100F2000DF910895DF93CF93CDB7DEB763970FB608
:100F3000F894DEBF0FBECDBF6A877B878C879D8705
:100F40002DB73EB73B8B2A8B8DB79EB79F878E8779
:100F50008A859B85AC85BD858C839D83AE83BF834D
:100F60001B821A8215C08C819D81AE81BF812AE0CF
:100F700030E040E050E0BC01CD010E94BD0BDA0141
:100F8000C9018C839D83AE83BF838B818F5F8B83ED
:100F90008C819D81AE81BF810097A105B10519F7B4
:100FA0008B81882F90E02DB73EB7281B390B0FB6E9
:100FB000F8943EBF0FBE2DBF8DB79EB70196998B9B
:100FC000888B888999890096998B888B288939899B
:100FD00039872887888599852DB73EB728503040B6
:100FE0000FB6F8943EBF0FBE2DBFEDB7FEB73196DA
:100FF0009183808380E690E0938382838A859B85BA
:10100000AC85BD8584839583A683B7830E94160C27
:101010008DB79EB708960FB6F8949EBF0FBE8DBFD2
:10102000888599850E9465072E853F850FB6F894BF
:101030003EBF0FBE2DBF8A899B890FB6F8949EBF15
:101040000FBE8DBF63960FB6F894DEBF0FBECDBF47
:10105000CF91DF910895DF93CF9300D00F92CDB75A
:10106000DEB78A836B838B81882319F48A81898315
:1010700006C08B81813019F48A81805C89838981E3
:1010800080580E949B050F900F900F90CF91DF9199
:101090000895DF93CF93CDB7DEB727970FB6F894B7
:1010A000DEBF0FBECDBF9C838B836D834E832F83AA
:1010B0008D81882F90E0880F991F880F991F880FC6
:1010C000991F8A838A81805C0E949B0519820EC0C9
:1010D0008981282F30E08B819C81FC01E20FF31F76
:1010E00080810E94390689818F5F89838981883058
:1010F00078F38E816F810E942B088D810E943906C2
:1011000027960FB6F894DEBF0FBECDBFCF91DF910B
:101110000895DF93CF9300D000D00F92CDB7DEB704
:101120009C838B831A828B819C8123E18838920770
:10113000D8F48B819C81CC01A0E0B0E0BA2FA92F1C
:10114000982F882728E833E140E050E0BC01CD012A
:101150000E94BD0BDA01C901898383E069810E9485
:10116000DE0989818D830FC08B819C8123E18838C2
:10117000920729F483E06FEF0E94DE0902C085E048
:101180008A838A818D838D810F900F900F900F90AD
:101190000F90CF91DF910895DF93CF93CDB7DEB756
:1011A00028970FB6F894DEBF0FBECDBF8A836B833E
:1011B0004C8319828B81883008F0F4C08C8188239D
:1011C00009F077C08A81282F30E038872F838F81FC
:1011D00098858130910559F12F813885223031056C
:1011E0002CF48F819885009769F060C02F81388535
:1011F0002230310589F18F8198858330910509F47A
:1012000040C054C0ABE3B0E0EBE3F0E08081482F96
:101210008B81282F30E081E090E0022E02C0880F01
:10122000991F0A94E2F7809584238C93BDC0A8E3AC
:10123000B0E0E8E3F0E08081482F8B81282F30E098
:1012400081E090E0022E02C0880F991F0A94E2F715
:10125000809584238C93A8C0A5E3B0E0E5E3F0E09B
:101260008081482F8B81282F30E081E090E0022E92
:1012700002C0880F991F0A94E2F7809584238C930B
:1012800093C0A2E3B0E0E2E3F0E08081482F8B81DD
:10129000282F30E081E090E0022E02C0880F991FD5
:1012A0000A94E2F7809584238C937EC081E0898341
:1012B0007BC08C81813009F072C08A81282F30E098
:1012C0003E832D838D819E818130910549F12D8151
:1012D0003E81223031052CF48D819E81009761F092
:1012E0005BC02D813E812230310571F18D819E815F
:1012F00083309105E9F150C0ABE3B0E0EBE3F0E0FF
:101300008081482F8B81282F30E081E090E0022EF1
:1013100002C0880F991F0A94E2F7842B8C9344C073
:10132000A8E3B0E0E8E3F0E08081482F8B81282F2C
:1013300030E081E090E0022E02C0880F991F0A94ED
:10134000E2F7842B8C9330C0A5E3B0E0E5E3F0E056
:101350008081482F8B81282F30E081E090E0022EA1
:1013600002C0880F991F0A94E2F7842B8C931CC04B
:10137000A2E3B0E0E2E3F0E08081482F8B81282FE8
:1013800030E081E090E0022E02C0880F991F0A949D
:10139000E2F7842B8C9308C081E0898305C081E04B
:1013A000898302C081E08983898128960FB6F894E9
:1013B000DEBF0FBECDBFCF91DF910895DF93CF93F6
:1013C00000D000D00F92CDB7DEB78A836B8319822D
:1013D0008A81282F30E03D832C838C819D81813050
:1013E0009105D1F02C813D81223031052CF48C8186
:1013F0009D81009761F01FC02C813D812230310515
:1014000081F08C819D818330910581F014C0EBE3E4
:10141000F0E08B81808311C0E8E3F0E08B81808372
:101420000CC0E5E3F0E08B81808307C0E2E3F0E0ED
:101430008B81808302C081E0898389810F900F9026
:101440000F900F900F90CF91DF910895DF93CF937E
:10145000CDB7DEB727970FB6F894DEBF0FBECDBF6E
:101460008A836B835D834C8319828B81883008F07B
:10147000AAC08C819D81009709F4A5C08A81282F7C
:1014800030E03F832E834E815F8141305105C1F1B1
:101490008E819F818230910534F42E813F81211508
:1014A000310571F08DC04E815F814230510509F4E4
:1014B00047C08E819F818330910509F461C080C04F
:1014C000E9E3F0E08081482F50E08B81282F30E065
:1014D00081E090E002C0880F991F2A95E2F79A01F7
:1014E000282339238B81882F90E0A90102C05595CC
:1014F00047958A95E2F7CA01EC81FD81808365C03A
:10150000E6E3F0E08081482F50E08B81282F30E027
:1015100081E090E002C0880F991F2A95E2F79A01B6
:10152000282339238B81882F90E0A90102C055958B
:1015300047958A95E2F7CA01EC81FD81808345C019
:10154000E3E3F0E08081482F50E08B81282F30E0EA
:1015500081E090E002C0880F991F2A95E2F79A0176
:10156000282339238B81882F90E0A90102C055954B
:1015700047958A95E2F7CA01EC81FD81808325C0F9
:10158000E0E3F0E08081482F50E08B81282F30E0AD
:1015900081E090E002C0880F991F2A95E2F79A0136
:1015A000282339238B81882F90E0A90102C055950B
:1015B00047958A95E2F7CA01EC81FD81808305C0D9
:1015C00081E0898302C081E08983898127960FB6F3
:1015D000F894DEBF0FBECDBFCF91DF910895DF93AA
:1015E000CF93CDB7DEB7EAE3F0E08FEF8083E7E398
:1015F000F0E08FEF8083E4E3F0E08FEF8083E1E3BE
:10160000F0E08FEF8083EBE3F0E087E08083E8E3B6
:10161000F0E01082E5E3F0E01082E2E3F0E0108217
:10162000CF91DF910895DF93CF93CDB7DEB7619768
:101630000FB6F894DEBF0FBECDBF0E94EF0A0E9426
:10164000D70684EA96E0988B8F878F8598890E94C9
:101650008908898B80E090E0A6E1B3E48B879C87C2
:10166000AD87BE876B857C858D859E8520E030E4C7
:101670004CE155E40E941702DC01CB018F8398876F
:10168000A987BA876F81788589859A8520E030E0BF
:1016900040E85FE30E94710388232CF481E090E02E
:1016A0009E838D833FC06F81788589859A8520E0F0
:1016B0003FEF4FE757E40E94110318164CF56B8576
:1016C0007C858D859E8520E030E040E251E40E94DB
:1016D0001702DC01CB01BC01CD010E944100DC01FD
:1016E000CB019E838D830FC08AEF90E09C838B8318
:1016F0008B819C810197F1F79C838B838D819E81E7
:1017000001979E838D838D819E81009769F714C018
:101710006F81788589859A850E944100DC01CB0123
:101720009E838D838D819E819A83898389819A810D
:101730000197F1F79A8389838F8598898C599F4FF8
:10174000988B8F878F85988923E18838920721F4B9
:1017500084EA96E0988B8F8781E00E949B0580E069
:1017600060E00E942B088989882F90E0A0E0B0E01B
:10177000BC01CD010E94920768CFA1E21A2EAA1BDC
:10178000BB1BFD010DC0AA1FBB1FEE1FFF1FA21731
:10179000B307E407F50720F0A21BB30BE40BF50B2E
:1017A000661F771F881F991F1A9469F760957095B7
:1017B000809590959B01AC01BD01CF0108952F92BA
:1017C0003F924F925F926F927F928F929F92AF92D1
:1017D000BF92CF92DF92EF92FF920F931F93CF931E
:1017E000DF93CDB7DEB7CA1BDB0B0FB6F894DEBFB5
:1017F0000FBECDBF09942A88398848885F846E84DB
:101800007D848C849B84AA84B984C884DF80EE8024
:10181000FD800C811B81AA81B981CE0FD11D0FB62D
:10182000F894DEBF0FBECDBFED010895AEE0B0E08D
:10183000ECE1FCE00C94ED0B0D891E8986E08C83B5
:101840001A8309838FEF9FE79E838D839E01275E16
:101850003F4FCE0101966F89788DA9010E943A0C05
:101860002F813885020F131FF80110822E96E4E0B5
:101870000C94090CABE0B0E0E0E4FCE00C94DF0B6E
:101880003C012B015A01FC0117821682838181FDE4
:1018900003C06FEF7FEFC6C19AE0892E1E01089446
:1018A000211C311CF3012381F20123FD859123FFCB
:1018B00081912F01882309F4B2C1853239F423FDC7
:1018C000859123FF81912F01853229F490E0B301A6
:1018D0000E942D0EE7CF982FFF24EE249924FFE1DC
:1018E000FF15D0F09B3269F09C3228F4903259F009
:1018F000933291F40EC09D3249F0903369F441E087
:1019000024C052E0F52A84E0F82A28C098E0F92A99
:1019100025C0E0E1FE2A22C0F7FC29C0892F8053B0
:101920008A3070F4F6FE05C0989C902C1124980E15
:1019300015C0E89CE02C1124E80EF0E2FF2A0EC04E
:101940009E3229F4F6FC6BC140E4F42A07C09C36B1
:1019500019F450E8F52A02C0983649F4F20123FD43
:10196000959123FF91912F01992309F0B8CF892FE9
:101970008554833018F08052833038F444E050E0CE
:10198000A40EB51E5FE359830FC0933631F0933731
:1019900079F0933509F056C020C0F5018081898324
:1019A00042E050E0A40EB51E610101E010E012C05B
:1019B000F501C080D180F6FC03C06FEF7FEF02C05D
:1019C000692D70E042E050E0A40EB51EC6010E94F1
:1019D000220E8C015FE7F52214C0F501C080D18092
:1019E000F6FC03C06FEF7FEF02C0692D70E042E0AC
:1019F00050E0A40EB51EC6010E94170E8C0150E8DF
:101A0000F52AF3FE07C01AC080E290E0B3010E94FD
:101A10002D0EEA948E2D90E008171907A8F30EC03A
:101A2000F601F7FC8591F7FE81916F0190E0B3011B
:101A30000E942D0EE110EA9401501040011511058D
:101A400079F7EAC0943611F0993669F5F7FE08C0C7
:101A5000F501208131814281538184E090E00AC008
:101A6000F501808191819C01442737FD4095542FD9
:101A700082E090E0A80EB91E9FE6F92257FF09C048
:101A800050954095309521953F4F4F4F5F4FE0E87F
:101A9000FE2ACA01B901A1012AE030E00E94590ED4
:101AA000D82ED21840C0953729F41F2D1F7E2AE06A
:101AB00030E01DC01F2D197F9F3661F0903720F454
:101AC000983509F0ACC00FC0903739F0983709F05D
:101AD000A6C004C028E030E00AC0106114FD146004
:101AE00020E130E004C014FD166020E132E017FF71
:101AF00008C0F501608171818281938144E050E0EA
:101B000008C0F50180819181BC0180E090E042E055
:101B100050E0A40EB51EA1010E94590ED82ED21875
:101B20008FE7F82EF122F6FE0BC05EEFF522D914F6
:101B300038F4F4FE07C0F2FC05C08FEEF82202C0B4
:101B40001D2D01C0192DF4FE0DC0FE01ED0DF11D7E
:101B50008081803319F499EEF92208C01F5FF2FEEC
:101B600005C003C08F2D867809F01F5F0F2DF3FC91
:101B700014C0F0FE0FC01E1510F09D2C0BC09D2C44
:101B80009E0C911A1E2D06C080E290E0B3010E94C7
:101B90002D0E1F5F1E15C0F304C01E1510F4E11AB0
:101BA00001C0EE2404FF0FC080E390E0B3010E9467
:101BB0002D0E02FF1DC001FD03C088E790E00EC09E
:101BC00088E590E00BC0802F867891F001FF02C07D
:101BD0008BE201C080E2F7FC8DE290E0B3010E944D
:101BE0002D0E06C080E390E0B3010E942D0E9A9462
:101BF000D914C0F3DA94F101ED0DF11D808190E06C
:101C0000B3010E942D0EDD20A9F706C080E290E00E
:101C1000B3010E942D0EEA94EE20C1F743CEF301EA
:101C200066817781CB012B96E2E10C94FB0BFC01E2
:101C30000590615070400110D8F7809590958E0FF7
:101C40009F1F0895FC016150704001900110D8F76A
:101C5000809590958E0F9F1F08950F931F93CF939C
:101C6000DF938C01EB018B8181FF1BC082FF0DC0D4
:101C70002E813F818C819D812817390764F4E8818A
:101C8000F9810193F983E88306C0E885F985802FFF
:101C90000995892B31F48E819F8101969F838E83D4
:101CA00002C00FEF1FEFC801DF91CF911F910F917D
:101CB0000895FA01AA27283051F1203181F1E894E2
:101CC0006F936E7F6E5F7F4F8F4F9F4FAF4FB1E02F
:101CD0003ED0B4E03CD0670F781F891F9A1FA11D2A
:101CE000680F791F8A1F911DA11D6A0F711D811D2B
:101CF000911DA11D20D009F468943F912AE0269FF0
:101D000011243019305D3193DEF6CF010895462F4E
:101D10004770405D4193B3E00FD0C9F7F6CF462F2F
:101D20004F70405D4A3318F0495D31FD4052419398
:101D300002D0A9F7EACFB4E0A69597958795779555
:101D40006795BA95C9F700976105710508959B01DC
:101D5000AC010A2E06945795479537952795BA9565
:101D6000C9F7620F731F841F951FA01D0895F89473
:021D7000FFCFA3
:0C1D7200256400000000000000000000DC
:00000001FF
